{
  "contractName": "MRMP",
  "abi": [
    {
      "inputs": [
        {
          "name": "_rmp721Address",
          "type": "address"
        }
      ],
      "payable": false,
      "stateMutability": "nonpayable",
      "type": "constructor"
    },
    {
      "anonymous": false,
      "inputs": [
        {
          "indexed": false,
          "name": "rmpId",
          "type": "uint256"
        }
      ],
      "name": "NewId",
      "type": "event"
    },
    {
      "anonymous": false,
      "inputs": [
        {
          "indexed": false,
          "name": "rmpContract",
          "type": "address"
        }
      ],
      "name": "NewContract",
      "type": "event"
    },
    {
      "anonymous": false,
      "inputs": [
        {
          "indexed": false,
          "name": "_title",
          "type": "bytes32"
        }
      ],
      "name": "songAdded",
      "type": "event"
    },
    {
      "anonymous": false,
      "inputs": [
        {
          "indexed": false,
          "name": "_contAddress",
          "type": "address"
        }
      ],
      "name": "contractCreated",
      "type": "event"
    },
    {
      "constant": false,
      "inputs": [],
      "name": "generateId",
      "outputs": [],
      "payable": false,
      "stateMutability": "nonpayable",
      "type": "function"
    },
    {
      "constant": false,
      "inputs": [
        {
          "name": "_rmpId",
          "type": "uint256"
        },
        {
          "name": "_trustee",
          "type": "address"
        },
        {
          "name": "_title",
          "type": "bytes32"
        },
        {
          "name": "_artist",
          "type": "bytes32"
        },
        {
          "name": "_album",
          "type": "bytes32"
        },
        {
          "name": "_rMonth",
          "type": "uint256"
        },
        {
          "name": "_rDay",
          "type": "uint256"
        },
        {
          "name": "_rYear",
          "type": "uint256"
        },
        {
          "name": "_genre",
          "type": "uint8"
        },
        {
          "name": "_image",
          "type": "bytes32"
        }
      ],
      "name": "addSong",
      "outputs": [
        {
          "name": "",
          "type": "uint256"
        }
      ],
      "payable": false,
      "stateMutability": "nonpayable",
      "type": "function"
    },
    {
      "constant": false,
      "inputs": [
        {
          "name": "_rmpId",
          "type": "uint256"
        },
        {
          "name": "_trustee",
          "type": "address"
        },
        {
          "name": "_title",
          "type": "bytes32"
        },
        {
          "name": "_artist",
          "type": "bytes32"
        },
        {
          "name": "_album",
          "type": "bytes32"
        },
        {
          "name": "_rMonth",
          "type": "uint256"
        },
        {
          "name": "_rDay",
          "type": "uint256"
        },
        {
          "name": "_rYear",
          "type": "uint256"
        },
        {
          "name": "_genre",
          "type": "uint8"
        },
        {
          "name": "_image",
          "type": "bytes32"
        }
      ],
      "name": "createContract",
      "outputs": [
        {
          "name": "",
          "type": "uint256"
        }
      ],
      "payable": false,
      "stateMutability": "nonpayable",
      "type": "function"
    },
    {
      "constant": false,
      "inputs": [
        {
          "name": "_rmpId",
          "type": "uint256"
        },
        {
          "name": "_name",
          "type": "bytes32"
        },
        {
          "name": "_title",
          "type": "bytes32"
        },
        {
          "name": "_percentage",
          "type": "uint256"
        },
        {
          "name": "_addr",
          "type": "address"
        }
      ],
      "name": "addStakeholder",
      "outputs": [],
      "payable": false,
      "stateMutability": "nonpayable",
      "type": "function"
    },
    {
      "constant": true,
      "inputs": [
        {
          "name": "genre",
          "type": "uint8"
        }
      ],
      "name": "getArtists",
      "outputs": [
        {
          "name": "",
          "type": "bytes32[]"
        }
      ],
      "payable": false,
      "stateMutability": "view",
      "type": "function"
    },
    {
      "constant": true,
      "inputs": [
        {
          "name": "_rmpId",
          "type": "uint256"
        }
      ],
      "name": "getContractAddress",
      "outputs": [
        {
          "name": "",
          "type": "address"
        }
      ],
      "payable": false,
      "stateMutability": "view",
      "type": "function"
    }
  ],
  "bytecode": "0x608060405234801561001057600080fd5b5060405160208061126583398101806040528101908080519060200190929190505050336000806101000a81548173ffffffffffffffffffffffffffffffffffffffff021916908373ffffffffffffffffffffffffffffffffffffffff16021790555080600160006101000a81548173ffffffffffffffffffffffffffffffffffffffff021916908373ffffffffffffffffffffffffffffffffffffffff160217905550506111a1806100c46000396000f300608060405260043610610078576000357c0100000000000000000000000000000000000000000000000000000000900463ffffffff168063198a6d561461007d5780636f8dcb3d14610141578063766c8c4914610158578063aefa7d981461021c578063eef8ce7914610289578063f2461bf01461030e575b600080fd5b34801561008957600080fd5b5061012b60048036038101908080359060200190929190803573ffffffffffffffffffffffffffffffffffffffff169060200190929190803560001916906020019092919080356000191690602001909291908035600019169060200190929190803590602001909291908035906020019092919080359060200190929190803560ff1690602001909291908035600019169060200190929190505050610381565b6040518082815260200191505060405180910390f35b34801561014d57600080fd5b506101566106a3565b005b34801561016457600080fd5b5061020660048036038101908080359060200190929190803573ffffffffffffffffffffffffffffffffffffffff169060200190929190803560001916906020019092919080356000191690602001909291908035600019169060200190929190803590602001909291908035906020019092919080359060200190929190803560ff169060200190929190803560001916906020019092919050505061073a565b6040518082815260200191505060405180910390f35b34801561022857600080fd5b5061024760048036038101908080359060200190929190505050610a14565b604051808273ffffffffffffffffffffffffffffffffffffffff1673ffffffffffffffffffffffffffffffffffffffff16815260200191505060405180910390f35b34801561029557600080fd5b506102b7600480360381019080803560ff169060200190929190505050610a51565b6040518080602001828103825283818151815260200191508051906020019060200280838360005b838110156102fa5780820151818401526020810190506102df565b505050509050019250505060405180910390f35b34801561031a57600080fd5b5061037f600480360381019080803590602001909291908035600019169060200190929190803560001916906020019092919080359060200190929190803573ffffffffffffffffffffffffffffffffffffffff169060200190929190505050610ac6565b005b60008060009054906101000a900473ffffffffffffffffffffffffffffffffffffffff1673ffffffffffffffffffffffffffffffffffffffff163373ffffffffffffffffffffffffffffffffffffffff161415156103de57600080fd5b60056000896000191660001916815260200190815260200160002060009054906101000a900460ff1615156104bd5760028890806001815401808255809150509060018203906000526020600020016000909192909190915090600019169055506001600560008a6000191660001916815260200190815260200160002060006101000a81548160ff021916908315150217905550600860008460ff1660ff1681526020019081526020016000208890806001815401808255809150509060018203906000526020600020016000909192909190915090600019169055505b60066000886000191660001916815260200190815260200160002060009054906101000a900460ff16151561055c5760096000896000191660001916815260200190815260200160002087908060018154018082558091505090600182039060005260206000200160009091929091909150906000191690555087600e6000896000191660001916815260200190815260200160002081600019169055505b600760008a6000191660001916815260200190815260200160002060009054906101000a900460ff16151561063f57600a6000886000191660001916815260200190815260200160002089908060018154018082558091505090600182039060005260206000200160009091929091909150906000191690555086600c60008b60001916600019168152602001908152602001600020816000191690555081600d60008b6000191660001916815260200190815260200160002081600019169055508a600b60008b60001916600019168152602001908152602001600020819055505b6106518b8b8b8b8b8b8b8b8b8b61073a565b507fd7d4ee8a5a4b54af06faf62f0d4087b3e491884e3e1094a0c8183561a96b86e98960405180826000191660001916815260200191505060405180910390a1600190509a9950505050505050505050565b6000429050600381908060018154018082558091505090600182039060005260206000200160009091929091909150555060016004600083815260200190815260200160002060006101000a81548160ff0219169083151502179055507f7df273aabd0c2fdf9b56091e8da922313a50aefbc3d3793e28df976eb8595ceb816040518082815260200191505060405180910390a150565b60008060008060009054906101000a900473ffffffffffffffffffffffffffffffffffffffff1673ffffffffffffffffffffffffffffffffffffffff163373ffffffffffffffffffffffffffffffffffffffff1614151561079a57600080fd5b6107a2610c3c565b604051809103906000f0801580156107be573d6000803e3d6000fd5b5091507f387ea218537e939551af33bbc2dd6c53b1fee55d377a0dce288258f972cb3a9c82604051808273ffffffffffffffffffffffffffffffffffffffff1673ffffffffffffffffffffffffffffffffffffffff16815260200191505060405180910390a18190508073ffffffffffffffffffffffffffffffffffffffff16635cbff4e58e8e6000809054906101000a900473ffffffffffffffffffffffffffffffffffffffff166040518463ffffffff167c0100000000000000000000000000000000000000000000000000000000028152600401808481526020018373ffffffffffffffffffffffffffffffffffffffff1673ffffffffffffffffffffffffffffffffffffffff1681526020018273ffffffffffffffffffffffffffffffffffffffff1673ffffffffffffffffffffffffffffffffffffffff1681526020019350505050600060405180830381600087803b15801561091f57600080fd5b505af1158015610933573d6000803e3d6000fd5b5050505081600f6000601054815260200190815260200160002060006101000a81548173ffffffffffffffffffffffffffffffffffffffff021916908373ffffffffffffffffffffffffffffffffffffffff1602179055506010600081548092919060010191905055507ffcf9a0c9dedbfcd1a047374855fc36baaf605bd4f4837802a0cc938ba1b5f30282604051808273ffffffffffffffffffffffffffffffffffffffff1673ffffffffffffffffffffffffffffffffffffffff16815260200191505060405180910390a16001925050509a9950505050505050505050565b6000600f600083815260200190815260200160002060009054906101000a900473ffffffffffffffffffffffffffffffffffffffff169050919050565b6060600860008360ff1660ff168152602001908152602001600020805480602002602001604051908101604052809291908181526020018280548015610aba57602002820191906000526020600020905b81546000191681526020019060010190808311610aa2575b50505050509050919050565b60008060009054906101000a900473ffffffffffffffffffffffffffffffffffffffff1673ffffffffffffffffffffffffffffffffffffffff163373ffffffffffffffffffffffffffffffffffffffff16141515610b2357600080fd5b600f600087815260200190815260200160002060009054906101000a900473ffffffffffffffffffffffffffffffffffffffff1690508073ffffffffffffffffffffffffffffffffffffffff166384b4499c868686866040518563ffffffff167c010000000000000000000000000000000000000000000000000000000002815260040180856000191660001916815260200184600019166000191681526020018381526020018273ffffffffffffffffffffffffffffffffffffffff1673ffffffffffffffffffffffffffffffffffffffff168152602001945050505050600060405180830381600087803b158015610c1c57600080fd5b505af1158015610c30573d6000803e3d6000fd5b50505050505050505050565b60405161052980610c4d833901905600608060405234801561001057600080fd5b50610509806100206000396000f300608060405260043610610062576000357c0100000000000000000000000000000000000000000000000000000000900463ffffffff1680635cbff4e5146100ab57806362afde251461011857806381e1091a1461018d57806384b4499c146101b8575b60003490507f284e3e671efeae309596e07a9a625e828b817ad516b3fb4ff24f7aa7b46cc1ad60005482604051808381526020018281526020019250505060405180910390a150005b3480156100b757600080fd5b5061011660048036038101908080359060200190929190803573ffffffffffffffffffffffffffffffffffffffff169060200190929190803573ffffffffffffffffffffffffffffffffffffffff169060200190929190505050610221565b005b34801561012457600080fd5b50610159600480360381019080803573ffffffffffffffffffffffffffffffffffffffff1690602001909291905050506102af565b6040518084600019166000191681526020018360001916600019168152602001828152602001935050505060405180910390f35b34801561019957600080fd5b506101a2610381565b6040518082815260200191505060405180910390f35b3480156101c457600080fd5b5061021f6004803603810190808035600019169060200190929190803560001916906020019092919080359060200190929190803573ffffffffffffffffffffffffffffffffffffffff16906020019092919050505061038b565b005b8260008190555081600160006101000a81548173ffffffffffffffffffffffffffffffffffffffff021916908373ffffffffffffffffffffffffffffffffffffffff16021790555080600260006101000a81548173ffffffffffffffffffffffffffffffffffffffff021916908373ffffffffffffffffffffffffffffffffffffffff160217905550505050565b6000806000600460008573ffffffffffffffffffffffffffffffffffffffff1673ffffffffffffffffffffffffffffffffffffffff16815260200190815260200160002054600560008673ffffffffffffffffffffffffffffffffffffffff1673ffffffffffffffffffffffffffffffffffffffff16815260200190815260200160002054600660008773ffffffffffffffffffffffffffffffffffffffff1673ffffffffffffffffffffffffffffffffffffffff168152602001908152602001600020549250925092509193909250565b6000600754905090565b60038190806001815401808255809150509060018203906000526020600020016000909192909190916101000a81548173ffffffffffffffffffffffffffffffffffffffff021916908373ffffffffffffffffffffffffffffffffffffffff1602179055505083600460008373ffffffffffffffffffffffffffffffffffffffff1673ffffffffffffffffffffffffffffffffffffffff168152602001908152602001600020816000191690555082600560008373ffffffffffffffffffffffffffffffffffffffff1673ffffffffffffffffffffffffffffffffffffffff168152602001908152602001600020816000191690555081600660008373ffffffffffffffffffffffffffffffffffffffff1673ffffffffffffffffffffffffffffffffffffffff16815260200190815260200160002081905550600760008154809291906001019190505550505050505600a165627a7a72305820907b9427e4592aa727cfca37ebbbb5e554a64f73c6e80372fe860798d7f09e7c0029a165627a7a7230582025db0e2ffdaad8809328ad2e7a0bf15b260838c728cc5dfd14d247e1dfd5d0980029",
  "source": "pragma solidity ^0.4.24;\n//pragma experimental ABIEncoderV2;\n\nimport './RMP721.sol';\nimport './RMPcontract.sol';\nimport './SimpleStorage.sol';\n\n/**\n *\n * Music Royalty Management Platform\n * Uses RMP721 Non-Fungible Token (Based on ERC721 standard)\n *\n */\n\ncontract MRMP {\n\n    address rmpManager;\n    //address rmp721Address;\n    RMP721 minter;\n\n//    mapping (uint8 => mapping (uint256 => bytes32)) internal genreToArtists;\n//\n//    mapping (bytes32 => mapping (uint256 => bytes32)) internal artistToAlbums;\n//\n//    mapping (bytes32 => mapping (uint256 => bytes32)) internal albumToTitles;\n\n    bytes32[] artist;\n\n    uint256[]rmpIdList;\n\n    mapping(uint256 => bool) internal rmpId_exists;\n\n    mapping(bytes32 => bool) internal artist_exists;\n\n    mapping(bytes32 => bool) internal album_exists;\n\n    mapping(bytes32 => bool) internal title_exists;\n\n\n    mapping (uint8 => bytes32[]) internal genreToArtists;\n\n    mapping (bytes32 => bytes32[]) internal artistToAlbums;\n\n    mapping (bytes32 => bytes32[]) internal albumToTitles;\n\n\n    mapping (bytes32 => uint256) internal titleToRMPid;\n\n    mapping (bytes32 => bytes32) internal titleToAlbum;\n\n    mapping (bytes32 => bytes32) internal titleToImage; // IPFS image link\n\n    mapping (bytes32 => bytes32) internal albumToArtist;\n\n\n\n    mapping (uint256 => address) internal rmpIdToContract;\n\n    uint256 numContracts;\n\n    //address _contAddress;\n\n\n\n    event NewId(uint256 rmpId);\n    event NewContract(address rmpContract);\n    event songAdded(bytes32 _title);\n    event contractCreated(address _contAddress);\n\n\n    constructor(address _rmp721Address) public {\n        rmpManager = msg.sender;\n        //rmp721Address = _rmp721Address;\n        minter = RMP721(_rmp721Address);\n    }\n\n\n    //To add a song:\n    //Call generateId to obtain an ID\n    //Upload image to IPFS and obtain URI (Needs to be done in javascript????)\n    //Call addSong to which adds song and calls generateContract\n    //generateContract creates the contract and mints token\n    //Call addStakeholder as many times as needed to add all stakeholders to the official contract\n\n\n\n    function generateId() public {\n\n        //require(msg.sender == rmpManager);\n\n        uint256 rmpId = uint256(now);\n        rmpIdList.push(rmpId);\n        rmpId_exists[rmpId] = true;\n        emit NewId(rmpId);\n    }\n\n\n\n    function addSong(\n        uint256 _rmpId,\n        address _trustee,\n        bytes32 _title,\n        bytes32 _artist,\n        bytes32 _album,\n        uint _rMonth,\n        uint _rDay,\n        uint _rYear,\n        uint8 _genre,\n        bytes32 _image\n    )\n    public returns (uint)\n    {\n        require(msg.sender == rmpManager);\n\n        //verify parameters here\n        //i.e. require(_genre > 0 && _genre <= 12)\n\n        //check to see if artist exists, if not then add it\n\n        if(!artist_exists[_artist]) {\n            artist.push(_artist);\n            artist_exists[_artist] = true;\n            genreToArtists[_genre].push(_artist);\n        }\n\n        if(!album_exists[_album]) {\n            artistToAlbums[_artist].push(_album);\n            albumToArtist[_album] = _artist;\n        }\n\n        if(!title_exists[_title]) {\n            albumToTitles[_album].push(_title);\n            titleToAlbum[_title] = _album;\n            titleToImage[_title] = _image; // IPFS image link\n            titleToRMPid[_title] = _rmpId;\n        }\n\n        //create contract and mint token\n        createContract(_rmpId, _trustee, _title, _artist, _album, _rMonth, _rDay, _rYear, _genre, _image);\n\n        emit songAdded(_title);\n        return 1;\n    }\n\n    function createContract(\n        uint256 _rmpId,\n        address _trustee,\n        bytes32 _title,\n        bytes32 _artist,\n        bytes32 _album,\n        uint _rMonth,\n        uint _rDay,\n        uint _rYear,\n        uint8 _genre,\n        bytes32 _image\n    )\n    public returns (uint)\n    {\n        require(msg.sender == rmpManager);\n\n        //create contract\n        address _contAddress = new RMPcontract();\n        //_contAddress = new SimpleStorage();\n        emit NewContract(_contAddress);\n\n        RMPcontract RMPcont = RMPcontract(_contAddress);\n\n        RMPcont.initRMPcont(_rmpId, _trustee, rmpManager);\n\n        rmpIdToContract[numContracts] = _contAddress;\n\n        numContracts++;\n\n        //mint token\n        //minter.mintRMP721(_rmpId, _contAddress, _trustee, _title, _artist, _album, _rMonth, _rDay, _rYear, _genre, _image);\n\n        emit contractCreated(_contAddress);\n        return 1;\n    }\n\n    function addStakeholder(\n        uint256 _rmpId,\n        bytes32 _name,\n        bytes32 _title,\n        uint _percentage,\n        address _addr\n    )\n    public\n    {\n        require(msg.sender == rmpManager); // what about trustee?\n\n        RMPcontract RMPcont = RMPcontract(rmpIdToContract[_rmpId]);\n\n        RMPcont.addStakeholderOfficial(_name, _title, _percentage, _addr);\n    }\n\n\n\n    function getArtists(uint8 genre) public view returns (bytes32[]) {\n        return genreToArtists[genre];\n    }\n\n    function getContractAddress(uint256 _rmpId) public view returns (address) {\n        return rmpIdToContract[_rmpId];\n    }\n\n//    function getArtists(uint8 genre, uint256 index) public view returns (bytes32) {\n//        return genreToArtists[genre][index];\n//    }\n\n    //Need more getters like one above, should test above function first\n\n}\n\n\n\n\n//In order to return string[], had to use 'pragma experimental ABIEncoderV2;', warning: don't use on live deployments",
  "sourcePath": "/Users/brad/Documents/CS480/project/mrmp2/contracts/MRMP.sol",
  "compiler": {
    "name": "solc",
    "version": "0.4.24+commit.e67f0147.Emscripten.clang"
  },
  "schemaVersion": "2.0.1",
  "updatedAt": "2018-12-10T23:48:09.344Z"
}