{
  "contractName": "MRMP",
  "abi": [
    {
      "inputs": [
        {
          "name": "_rmp721Address",
          "type": "address"
        }
      ],
      "payable": false,
      "stateMutability": "nonpayable",
      "type": "constructor"
    },
    {
      "anonymous": false,
      "inputs": [
        {
          "indexed": false,
          "name": "rmpId",
          "type": "uint256"
        }
      ],
      "name": "NewId",
      "type": "event"
    },
    {
      "constant": false,
      "inputs": [],
      "name": "generateId",
      "outputs": [],
      "payable": false,
      "stateMutability": "nonpayable",
      "type": "function"
    },
    {
      "constant": false,
      "inputs": [
        {
          "name": "_rmpId",
          "type": "uint256"
        },
        {
          "name": "_trustee",
          "type": "address"
        },
        {
          "name": "_title",
          "type": "bytes32"
        },
        {
          "name": "_artist",
          "type": "bytes32"
        },
        {
          "name": "_album",
          "type": "bytes32"
        },
        {
          "name": "_rMonth",
          "type": "uint256"
        },
        {
          "name": "_rDay",
          "type": "uint256"
        },
        {
          "name": "_rYear",
          "type": "uint256"
        },
        {
          "name": "_genre",
          "type": "uint8"
        },
        {
          "name": "_image",
          "type": "bytes32"
        }
      ],
      "name": "addSong",
      "outputs": [],
      "payable": false,
      "stateMutability": "nonpayable",
      "type": "function"
    },
    {
      "constant": false,
      "inputs": [
        {
          "name": "_rmpId",
          "type": "uint256"
        },
        {
          "name": "_trustee",
          "type": "address"
        },
        {
          "name": "_title",
          "type": "bytes32"
        },
        {
          "name": "_artist",
          "type": "bytes32"
        },
        {
          "name": "_album",
          "type": "bytes32"
        },
        {
          "name": "_rMonth",
          "type": "uint256"
        },
        {
          "name": "_rDay",
          "type": "uint256"
        },
        {
          "name": "_rYear",
          "type": "uint256"
        },
        {
          "name": "_genre",
          "type": "uint8"
        },
        {
          "name": "_image",
          "type": "bytes32"
        }
      ],
      "name": "createContract",
      "outputs": [],
      "payable": false,
      "stateMutability": "nonpayable",
      "type": "function"
    },
    {
      "constant": false,
      "inputs": [
        {
          "name": "_rmpId",
          "type": "uint256"
        },
        {
          "name": "_name",
          "type": "bytes32"
        },
        {
          "name": "_title",
          "type": "bytes32"
        },
        {
          "name": "_percentage",
          "type": "uint256"
        },
        {
          "name": "_addr",
          "type": "address"
        }
      ],
      "name": "addStakeholder",
      "outputs": [],
      "payable": false,
      "stateMutability": "nonpayable",
      "type": "function"
    },
    {
      "constant": true,
      "inputs": [
        {
          "name": "genre",
          "type": "uint8"
        },
        {
          "name": "index",
          "type": "uint256"
        }
      ],
      "name": "getArtists",
      "outputs": [
        {
          "name": "",
          "type": "bytes32"
        }
      ],
      "payable": false,
      "stateMutability": "view",
      "type": "function"
    },
    {
      "constant": true,
      "inputs": [
        {
          "name": "_rmpId",
          "type": "uint256"
        }
      ],
      "name": "getContractAddress",
      "outputs": [
        {
          "name": "",
          "type": "address"
        }
      ],
      "payable": false,
      "stateMutability": "view",
      "type": "function"
    }
  ],
  "bytecode": "0x608060405234801561001057600080fd5b5060405160208061126e83398101806040528101908080519060200190929190505050336000806101000a81548173ffffffffffffffffffffffffffffffffffffffff021916908373ffffffffffffffffffffffffffffffffffffffff16021790555080600160006101000a81548173ffffffffffffffffffffffffffffffffffffffff021916908373ffffffffffffffffffffffffffffffffffffffff160217905550506111aa806100c46000396000f300608060405260043610610078576000357c0100000000000000000000000000000000000000000000000000000000900463ffffffff168063198a6d561461007d5780636f8dcb3d1461012d578063766c8c4914610144578063aefa7d98146101f4578063f125fe1314610261578063f2461bf0146102b7575b600080fd5b34801561008957600080fd5b5061012b60048036038101908080359060200190929190803573ffffffffffffffffffffffffffffffffffffffff169060200190929190803560001916906020019092919080356000191690602001909291908035600019169060200190929190803590602001909291908035906020019092919080359060200190929190803560ff169060200190929190803560001916906020019092919050505061032a565b005b34801561013957600080fd5b5061014261058f565b005b34801561015057600080fd5b506101f260048036038101908080359060200190929190803573ffffffffffffffffffffffffffffffffffffffff169060200190929190803560001916906020019092919080356000191690602001909291908035600019169060200190929190803590602001909291908035906020019092919080359060200190929190803560ff16906020019092919080356000191690602001909291905050506105ce565b005b34801561020057600080fd5b5061021f60048036038101908080359060200190929190505050610951565b604051808273ffffffffffffffffffffffffffffffffffffffff1673ffffffffffffffffffffffffffffffffffffffff16815260200191505060405180910390f35b34801561026d57600080fd5b50610299600480360381019080803560ff1690602001909291908035906020019092919050505061098e565b60405180826000191660001916815260200191505060405180910390f35b3480156102c357600080fd5b50610328600480360381019080803590602001909291908035600019169060200190929190803560001916906020019092919080359060200190929190803573ffffffffffffffffffffffffffffffffffffffff1690602001909291905050506109c9565b005b6000806000809054906101000a900473ffffffffffffffffffffffffffffffffffffffff1673ffffffffffffffffffffffffffffffffffffffff163373ffffffffffffffffffffffffffffffffffffffff1614151561038857600080fd5b60009050600091505b6005805490508210156103d95788600019166005838154811015156103b257fe5b90600052602060002001546000191614156103cc57600190505b8180600101925050610391565b8015156104135760058990806001815401808255809150509060018203906000526020600020016000909192909190915090600019169055505b60009050600091505b600260008560ff1660ff16815260200190815260200160002080549050821015610492578860001916600260008660ff1660ff1681526020019081526020016000208381548110151561046b57fe5b906000526020600020015460001916141561048557600190505b818060010192505061041c565b8015156104e357600260008560ff1660ff1681526020019081526020016000208990806001815401808255809150509060018203906000526020600020016000909192909190915090600019169055505b82600860008c6000191660001916815260200190815260200160002081600019169055508b600660008c600019166000191681526020019081526020016000208190555087600760008c60001916600019168152602001908152602001600020816000191690555088600960008a6000191660001916815260200190815260200160002081600019169055506105818c8c8c8c8c8c8c8c8c8c6105ce565b505050505050505050505050565b60004290507f7df273aabd0c2fdf9b56091e8da922313a50aefbc3d3793e28df976eb8595ceb816040518082815260200191505060405180910390a150565b6000806000809054906101000a900473ffffffffffffffffffffffffffffffffffffffff1673ffffffffffffffffffffffffffffffffffffffff163373ffffffffffffffffffffffffffffffffffffffff1614151561062c57600080fd5b610634610b3f565b604051809103906000f080158015610650573d6000803e3d6000fd5b5091508190508073ffffffffffffffffffffffffffffffffffffffff16635cbff4e58d8d6000809054906101000a900473ffffffffffffffffffffffffffffffffffffffff166040518463ffffffff167c0100000000000000000000000000000000000000000000000000000000028152600401808481526020018373ffffffffffffffffffffffffffffffffffffffff1673ffffffffffffffffffffffffffffffffffffffff1681526020018273ffffffffffffffffffffffffffffffffffffffff1673ffffffffffffffffffffffffffffffffffffffff1681526020019350505050600060405180830381600087803b15801561074e57600080fd5b505af1158015610762573d6000803e3d6000fd5b5050505081600a6000600b54815260200190815260200160002060006101000a81548173ffffffffffffffffffffffffffffffffffffffff021916908373ffffffffffffffffffffffffffffffffffffffff160217905550600b60008154809291906001019190505550600160009054906101000a900473ffffffffffffffffffffffffffffffffffffffff1673ffffffffffffffffffffffffffffffffffffffff16631d90062e8d848e8e8e8e8e8e8e8e8e6040518c63ffffffff167c0100000000000000000000000000000000000000000000000000000000028152600401808c81526020018b73ffffffffffffffffffffffffffffffffffffffff1673ffffffffffffffffffffffffffffffffffffffff1681526020018a73ffffffffffffffffffffffffffffffffffffffff1673ffffffffffffffffffffffffffffffffffffffff1681526020018960001916600019168152602001886000191660001916815260200187600019166000191681526020018681526020018581526020018481526020018360ff1660ff16815260200182600019166000191681526020019b505050505050505050505050600060405180830381600087803b15801561092b57600080fd5b505af115801561093f573d6000803e3d6000fd5b50505050505050505050505050505050565b6000600a600083815260200190815260200160002060009054906101000a900473ffffffffffffffffffffffffffffffffffffffff169050919050565b6000600260008460ff1660ff168152602001908152602001600020828154811015156109b657fe5b9060005260206000200154905092915050565b60008060009054906101000a900473ffffffffffffffffffffffffffffffffffffffff1673ffffffffffffffffffffffffffffffffffffffff163373ffffffffffffffffffffffffffffffffffffffff16141515610a2657600080fd5b600a600087815260200190815260200160002060009054906101000a900473ffffffffffffffffffffffffffffffffffffffff1690508073ffffffffffffffffffffffffffffffffffffffff166384b4499c868686866040518563ffffffff167c010000000000000000000000000000000000000000000000000000000002815260040180856000191660001916815260200184600019166000191681526020018381526020018273ffffffffffffffffffffffffffffffffffffffff1673ffffffffffffffffffffffffffffffffffffffff168152602001945050505050600060405180830381600087803b158015610b1f57600080fd5b505af1158015610b33573d6000803e3d6000fd5b50505050505050505050565b60405161062f80610b50833901905600608060405234801561001057600080fd5b5061060f806100206000396000f300608060405260043610610062576000357c0100000000000000000000000000000000000000000000000000000000900463ffffffff1680635cbff4e5146100ab57806381e1091a1461011857806384b4499c14610143578063c9851629146101ac575b60003490507f284e3e671efeae309596e07a9a625e828b817ad516b3fb4ff24f7aa7b46cc1ad60005482604051808381526020018281526020019250505060405180910390a150005b3480156100b757600080fd5b5061011660048036038101908080359060200190929190803573ffffffffffffffffffffffffffffffffffffffff169060200190929190803573ffffffffffffffffffffffffffffffffffffffff16906020019092919050505061023e565b005b34801561012457600080fd5b5061012d610328565b6040518082815260200191505060405180910390f35b34801561014f57600080fd5b506101aa6004803603810190808035600019169060200190929190803560001916906020019092919080359060200190929190803573ffffffffffffffffffffffffffffffffffffffff169060200190929190505050610332565b005b3480156101b857600080fd5b506101d7600480360381019080803590602001909291905050506104c7565b60405180856000191660001916815260200184600019166000191681526020018381526020018273ffffffffffffffffffffffffffffffffffffffff1673ffffffffffffffffffffffffffffffffffffffff16815260200194505050505060405180910390f35b600160009054906101000a900473ffffffffffffffffffffffffffffffffffffffff1673ffffffffffffffffffffffffffffffffffffffff163373ffffffffffffffffffffffffffffffffffffffff1614151561029a57600080fd5b8260008190555081600160006101000a81548173ffffffffffffffffffffffffffffffffffffffff021916908373ffffffffffffffffffffffffffffffffffffffff16021790555080600260006101000a81548173ffffffffffffffffffffffffffffffffffffffff021916908373ffffffffffffffffffffffffffffffffffffffff160217905550505050565b6000600454905090565b600160009054906101000a900473ffffffffffffffffffffffffffffffffffffffff1673ffffffffffffffffffffffffffffffffffffffff163373ffffffffffffffffffffffffffffffffffffffff1614806103db5750600260009054906101000a900473ffffffffffffffffffffffffffffffffffffffff1673ffffffffffffffffffffffffffffffffffffffff163373ffffffffffffffffffffffffffffffffffffffff16145b15156103e657600080fd5b60806040519081016040528085600019168152602001846000191681526020018381526020018273ffffffffffffffffffffffffffffffffffffffff1681525060036000600454815260200190815260200160002060008201518160000190600019169055602082015181600101906000191690556040820151816002015560608201518160030160006101000a81548173ffffffffffffffffffffffffffffffffffffffff021916908373ffffffffffffffffffffffffffffffffffffffff16021790555090505060046000815480929190600101919050555050505050565b6000806000806104d561059e565b6003600087815260200190815260200160002060806040519081016040529081600082015460001916600019168152602001600182015460001916600019168152602001600282015481526020016003820160009054906101000a900473ffffffffffffffffffffffffffffffffffffffff1673ffffffffffffffffffffffffffffffffffffffff1673ffffffffffffffffffffffffffffffffffffffff1681525050905080600001519450806020015193508060400151925080606001519150509193509193565b608060405190810160405280600080191681526020016000801916815260200160008152602001600073ffffffffffffffffffffffffffffffffffffffff16815250905600a165627a7a7230582050dc523d6e5f3955e0adca724670fc3324ccffd4c93fb2e02430fb9151ac061b0029a165627a7a723058206e991f39bca46daeb7b0174692b2c2290e0d311d0c28bc7bba405d5ef7d840810029",
  "source": "pragma solidity ^0.4.24;\n//pragma experimental ABIEncoderV2;\n\nimport './RMP721.sol';\nimport './RMPcontract.sol';\n\n/**\n *\n * Music Royalty Management Platform\n * Uses RMP721 Non-Fungible Token (Based on ERC721 standard)\n *\n */\n\ncontract MRMP {\n\n    address rmpManager;\n    //address rmp721Address;\n    RMP721 minter;\n\n    mapping (uint8 => bytes32[]) internal genreToArtists;\n\n    mapping (bytes32 => bytes32[]) internal artistToAlbums;\n\n    mapping (bytes32 => bytes32[]) internal albumToSongs;\n\n    bytes32[] artist;\n\n//    mapping (uint8 => mapping (uint256 => bytes32)) internal genreToArtists;\n//\n//    mapping (bytes32 => mapping (uint256 => bytes32)) internal artistToAlbums;\n//\n//    mapping (bytes32 => mapping (uint256 => bytes32)) internal albumToSongs;\n\n\n    mapping (bytes32 => uint256) internal songToTokenId;\n\n    mapping (bytes32 => bytes32) internal songToAlbum;\n\n    mapping (bytes32 => bytes32) internal songToImage; // IPFS image link\n\n    mapping (bytes32 => bytes32) internal albumToArtist;\n\n\n\n    mapping (uint256 => address) internal rmpIdToContract;\n\n    uint256 numContracts;\n\n\n\n    event NewId(uint256 rmpId);\n\n\n    constructor(address _rmp721Address) public {\n        rmpManager = msg.sender;\n        minter = RMP721(_rmp721Address);\n    }\n\n\n    //To add a song:\n    //Call generateId to obtain an ID\n    //Upload image to IPFS and obtain URI (Needs to be done in javascript????)\n    //Call addSong to which adds song and calls generateContract\n    //generateContract creates the contract and mints token\n    //Call addStakeholder as many times as needed to add all stakeholders to the official contract\n\n\n\n    function generateId() public {\n        uint256 rmpId = uint256(now);\n        emit NewId(rmpId);\n    }\n\n\n\n    function addSong(\n        uint256 _rmpId,\n        address _trustee,\n        bytes32 _title,\n        bytes32 _artist,\n        bytes32 _album,\n        uint _rMonth,\n        uint _rDay,\n        uint _rYear,\n        uint8 _genre,\n        bytes32 _image\n    )\n    public\n    {\n        require(msg.sender == rmpManager);\n\n        uint256 i;\n        bool exists;\n\n        //verify parameters here\n        //i.e. require(_genre > 0 && _genre <= 12)\n\n        //check to see if artist exists, if not then add it\n        exists = false;\n        for (i = 0; i < artist.length; i++) {\n            //if (keccak256(bytes(artist[i])) == keccak256(bytes(_artist))) exists = true;\n            if (artist[i] == _artist) exists = true;\n            // is there a better way? Needs to be tested\n        }\n        if (!exists)\n            artist.push(_artist);\n\n        //add artist to genreToArtists;\n\n\n        exists = false;\n        for (i = 0; i < genreToArtists[_genre].length; i++) {\n            if (genreToArtists[_genre][i] == _artist) exists = true;\n        }\n        if (!exists)\n            genreToArtists[_genre].push(_artist);\n\n\n        //add album to artistToAlbums;\n\n        //add song to albumToSongs;\n\n\n        songToImage[_title] = _image; // IPFS image link\n\n        songToTokenId[_title] = _rmpId;\n\n        songToAlbum[_title] = _album;\n\n        albumToArtist[_album] = _artist;\n\n        //create contract and mint token\n        createContract(_rmpId, _trustee, _title, _artist, _album, _rMonth, _rDay, _rYear, _genre, _image);\n\n    }\n\n    function createContract(\n        uint256 _rmpId,\n        address _trustee,\n        bytes32 _title,\n        bytes32 _artist,\n        bytes32 _album,\n        uint _rMonth,\n        uint _rDay,\n        uint _rYear,\n        uint8 _genre,\n        bytes32 _image\n    )\n    public\n    {\n        require(msg.sender == rmpManager);\n\n        //create contract\n        address _contAddress = new RMPcontract();\n\n        RMPcontract RMPcont = RMPcontract(_contAddress);\n\n        RMPcont.initRMPcont(_rmpId, _trustee, rmpManager);\n\n        rmpIdToContract[numContracts] = _contAddress;\n\n        numContracts++;\n\n        //mint token\n        minter.mintRMP721(_rmpId, _contAddress, _trustee, _title, _artist, _album, _rMonth, _rDay, _rYear, _genre, _image);\n    }\n\n    function addStakeholder(\n        uint256 _rmpId,\n        bytes32 _name,\n        bytes32 _title,\n        uint _percentage,\n        address _addr\n    )\n    public\n    {\n        require(msg.sender == rmpManager); // what about trustee?\n\n        RMPcontract RMPcont = RMPcontract(rmpIdToContract[_rmpId]);\n\n        RMPcont.addStakeholderOfficial(_name, _title, _percentage, _addr);\n    }\n\n    function getArtists(uint8 genre, uint256 index) public view returns (bytes32) {\n        return genreToArtists[genre][index];\n    }\n\n    function getContractAddress(uint256 _rmpId) public view returns (address) {\n        return rmpIdToContract[_rmpId];\n    }\n\n    //In order to return bytes32[], had to use 'pragma experimental ABIEncoderV2;', warning: don't use on live deployments\n    //    function getArtists(uint8 genre) public view returns (bytes32[]) {\n    //        return genreToArtists[genre];\n    //    }\n\n    //Need more getters like one above, should test above function first\n\n}\n",
  "sourcePath": "/Users/brad/Documents/CS480/project/mrmp2/contracts/MRMP.sol",
  "compiler": {
    "name": "solc",
    "version": "0.4.24+commit.e67f0147.Emscripten.clang"
  },
  "schemaVersion": "2.0.1",
  "updatedAt": "2018-12-08T21:27:48.480Z"
}