{
  "contractName": "RMPcontract",
  "abi": [
    {
      "inputs": [],
      "payable": false,
      "stateMutability": "nonpayable",
      "type": "constructor"
    },
    {
      "payable": true,
      "stateMutability": "payable",
      "type": "fallback"
    },
    {
      "anonymous": false,
      "inputs": [
        {
          "indexed": false,
          "name": "tokenId",
          "type": "uint256"
        },
        {
          "indexed": false,
          "name": "amount",
          "type": "uint256"
        }
      ],
      "name": "RoyaltyPayment",
      "type": "event"
    },
    {
      "constant": false,
      "inputs": [
        {
          "name": "_rmpId",
          "type": "uint256"
        },
        {
          "name": "_rmpManager",
          "type": "address"
        },
        {
          "name": "_trustee",
          "type": "address"
        }
      ],
      "name": "initRMPcont",
      "outputs": [],
      "payable": false,
      "stateMutability": "nonpayable",
      "type": "function"
    },
    {
      "constant": false,
      "inputs": [
        {
          "name": "_name",
          "type": "bytes32"
        },
        {
          "name": "_title",
          "type": "bytes32"
        },
        {
          "name": "_percentage",
          "type": "uint256"
        },
        {
          "name": "_addr",
          "type": "address"
        }
      ],
      "name": "addStakeholderOfficial",
      "outputs": [],
      "payable": false,
      "stateMutability": "nonpayable",
      "type": "function"
    },
    {
      "constant": true,
      "inputs": [
        {
          "name": "index",
          "type": "uint256"
        }
      ],
      "name": "getStakeholder",
      "outputs": [
        {
          "name": "_name",
          "type": "bytes32"
        },
        {
          "name": "_title",
          "type": "bytes32"
        },
        {
          "name": "_percentage",
          "type": "uint256"
        },
        {
          "name": "_addr",
          "type": "address"
        }
      ],
      "payable": false,
      "stateMutability": "view",
      "type": "function"
    },
    {
      "constant": true,
      "inputs": [],
      "name": "getNumStakeholders",
      "outputs": [
        {
          "name": "",
          "type": "uint256"
        }
      ],
      "payable": false,
      "stateMutability": "view",
      "type": "function"
    }
  ],
  "bytecode": "0x608060405234801561001057600080fd5b5061060f806100206000396000f300608060405260043610610062576000357c0100000000000000000000000000000000000000000000000000000000900463ffffffff1680635cbff4e5146100ab57806381e1091a1461011857806384b4499c14610143578063c9851629146101ac575b60003490507f284e3e671efeae309596e07a9a625e828b817ad516b3fb4ff24f7aa7b46cc1ad60005482604051808381526020018281526020019250505060405180910390a150005b3480156100b757600080fd5b5061011660048036038101908080359060200190929190803573ffffffffffffffffffffffffffffffffffffffff169060200190929190803573ffffffffffffffffffffffffffffffffffffffff16906020019092919050505061023e565b005b34801561012457600080fd5b5061012d610328565b6040518082815260200191505060405180910390f35b34801561014f57600080fd5b506101aa6004803603810190808035600019169060200190929190803560001916906020019092919080359060200190929190803573ffffffffffffffffffffffffffffffffffffffff169060200190929190505050610332565b005b3480156101b857600080fd5b506101d7600480360381019080803590602001909291905050506104c7565b60405180856000191660001916815260200184600019166000191681526020018381526020018273ffffffffffffffffffffffffffffffffffffffff1673ffffffffffffffffffffffffffffffffffffffff16815260200194505050505060405180910390f35b600160009054906101000a900473ffffffffffffffffffffffffffffffffffffffff1673ffffffffffffffffffffffffffffffffffffffff163373ffffffffffffffffffffffffffffffffffffffff1614151561029a57600080fd5b8260008190555081600160006101000a81548173ffffffffffffffffffffffffffffffffffffffff021916908373ffffffffffffffffffffffffffffffffffffffff16021790555080600260006101000a81548173ffffffffffffffffffffffffffffffffffffffff021916908373ffffffffffffffffffffffffffffffffffffffff160217905550505050565b6000600454905090565b600160009054906101000a900473ffffffffffffffffffffffffffffffffffffffff1673ffffffffffffffffffffffffffffffffffffffff163373ffffffffffffffffffffffffffffffffffffffff1614806103db5750600260009054906101000a900473ffffffffffffffffffffffffffffffffffffffff1673ffffffffffffffffffffffffffffffffffffffff163373ffffffffffffffffffffffffffffffffffffffff16145b15156103e657600080fd5b60806040519081016040528085600019168152602001846000191681526020018381526020018273ffffffffffffffffffffffffffffffffffffffff1681525060036000600454815260200190815260200160002060008201518160000190600019169055602082015181600101906000191690556040820151816002015560608201518160030160006101000a81548173ffffffffffffffffffffffffffffffffffffffff021916908373ffffffffffffffffffffffffffffffffffffffff16021790555090505060046000815480929190600101919050555050505050565b6000806000806104d561059e565b6003600087815260200190815260200160002060806040519081016040529081600082015460001916600019168152602001600182015460001916600019168152602001600282015481526020016003820160009054906101000a900473ffffffffffffffffffffffffffffffffffffffff1673ffffffffffffffffffffffffffffffffffffffff1673ffffffffffffffffffffffffffffffffffffffff1681525050905080600001519450806020015193508060400151925080606001519150509193509193565b608060405190810160405280600080191681526020016000801916815260200160008152602001600073ffffffffffffffffffffffffffffffffffffffff16815250905600a165627a7a72305820f210127b3acc8d1e27985debf0f31a42dfecf7e5a66eba77409d48c2188a59530029",
  "source": "pragma solidity ^0.4.24;\n\n\n/**\n *\n * Official Royalty Distribution Contract\n * Music Royalty Management Platform\n *\n */\n\n\n\ncontract RMPcontract {\n    uint256 rmpId;\n    address rmpManager;\n    address trustee;\n\n    struct stakeholder {\n        bytes32 name; //Stakeholder's name\n        bytes32 title; //Stakeholder's title i.e. songwriter, composer, musician, organization, other\n        uint percentage; //Integer 1 to 100 indicating percentage of royalties\n        address addr; //Stakeholder's Ethereum address\n    }\n\n    mapping (uint256 => stakeholder) private stHolder; //List of stakeholders, (0 to stHolderCount - 1)\n\n    uint256 stHolderCount;\n\n    event RoyaltyPayment(uint256 tokenId, uint amount);\n\n\n\n\n    constructor() public {\n    }\n\n    function initRMPcont(uint256 _rmpId, address _rmpManager, address _trustee) public {\n        require(msg.sender == rmpManager);\n        rmpId = _rmpId;\n        rmpManager = _rmpManager;\n        trustee = _trustee;\n    }\n\n    function addStakeholderOfficial(\n        bytes32 _name,\n        bytes32 _title,\n        uint _percentage,\n        address _addr\n    )\n    public\n    {\n        require(msg.sender == rmpManager || msg.sender == trustee);\n        stHolder[stHolderCount] = stakeholder(_name, _title, _percentage, _addr);\n        stHolderCount++;\n    }\n\n    function getStakeholder(uint index) public view returns(\n        bytes32 _name,\n        bytes32 _title,\n        uint _percentage,\n        address _addr\n    )\n    {\n        stakeholder memory stk = stHolder[index];\n\n        _name = stk.name;\n        _title = stk.title;\n        _percentage = stk.percentage;\n        _addr = stk.addr;\n    }\n\n    function getNumStakeholders() public view returns (uint) {\n        return stHolderCount;\n    }\n\n    function() public payable {\n        uint amountReceived = msg.value;\n\n\n        //Unfinished\n        //Need to distribute funds to stakeholders\n        //Can this be done without floating points?\n\n        emit RoyaltyPayment(rmpId, amountReceived);\n    }\n}\n\n\n",
  "sourcePath": "/Users/brad/Documents/CS480/project/mrmp2/contracts/RMPcontractPrev01.sol",
  "compiler": {
    "name": "solc",
    "version": "0.4.24+commit.e67f0147.Emscripten.clang"
  },
  "schemaVersion": "2.0.1",
  "updatedAt": "2018-12-10T23:48:09.336Z"
}